:020000040000FA
:020000003B2A99
:040002000034003492
:02000800792954
:06000A0083168801890144
:10001000831209100911080089148316FF30880023
:100020008312091500000000000000000000881B7A
:1000300017280911831688018312891008000915F1
:100040000000000000000000000009110800091075
:1000500088000C2009141F200800091088000C20BB
:100060001F20080038302D20422038302D2042201B
:1000700038302D204220080001302D2008000C309F
:100080002D20080064005030A500A401A40B4628D0
:10009000A50B4628080020088207BE347734B73401
:1000A000D7347B34BB34DB347D34BD34DD347E3433
:1000B000DE34EE34ED34EB34E734200882076C3460
:1000C00075347C3484348B34913497349D34A33428
:1000D000A834AD34B234B634BB34BF34C334831621
:1000E00001308600F030880083120800FE30A7003F
:1000F0008800000000000000000000000000000078
:100100000000000000000808A600F039F03C031DC4
:100110008F280314A70D271E8F282708782808008A
:100120000808A6001330A100642108082602080070
:10013000A0014B20260203199F28A00A9928080035
:100140005D208100A800A0308B00FF30A100642159
:10015000642100308B0008000808F039F03C031DD2
:10016000AC2808002008820730343134323433346C
:100170003434353436343734383439344134423415
:1001800043344434453446342008820750344934DB
:100190004E343A3420340034200882074F344B3434
:1001A000203420342034003420088207453452346F
:1001B00052344F3452340034200882072E342E3407
:1001C0002E342E340034200882074E34203450342C
:1001D00049344E343A3400342008820757345434BA
:1001E00020345334323400342008820742344C34F3
:1001F0004F3443344B3400340313831607178717E7
:1002000081309900A430980083121816903098001D
:100210008C12080083120C1E0B299900080083120F
:10022000981815211A08C20008001812181608009C
:10023000B701B2014530320784000008B4005530E0
:10024000320784000008B50034083502031D2A294E
:100250002929B70AB20A32083302031D1A293029A4
:1002600037083302031D37293529361408003610A4
:1002700008008316031306309F00FF3085008312A9
:10028000052032203C203F2080302D2006302D20BC
:10029000831605308100013086008601803087009A
:1002A00083126C30A8000430B30000302D200030E1
:1002B000A000E3200038031960292720A00A59294B
:1002C000C0302D20852108002108A300FF30A200A6
:1002D000A20B6829A30B662908006421642164210C
:1002E00064216421642164216421642164216421E6
:1002F0000800C0008B1C7F29B3218B1083290B1DA4
:100300007929A9210B11400809008601B601B00125
:100310000330B800C0302D200030A000DC200038B1
:10032000031995292720A00A8E29C0302D200030DE
:100330008B0008009020031DA8299820AC20B22033
:10034000B10055303007840031088000B00A272002
:1003500008000718AD290714AE29071028088100E6
:10036000A0308B000800861445300A21B617A03053
:100370008B000800B001C0302D200030A000DC2030
:1003800000380319C6292720A00ABF29C0302D2014
:100390008C1EC8290F2127204530300784004208D1
:1003A0008000B00A3008043C031DC829051AD92969
:1003B000DC29851AD629BA2908000616B614003099
:1003C0002D200030A000F42000380319EA2927204E
:1003D000A00AE329C0302D2042300A2108008C1EDB
:1003E000EF290F21483A031DEF29080080302D2006
:1003F0000030A000D42000380319012A2720A00AC9
:10040000FA29C0302D20FF30B9006421B90B052A2C
:100410000617080080302D200030A000CC200038C6
:100420000319152A2720A00A0E2AC0302D20FF30DC
:10043000B9006421B90B192A0800861700302D2055
:100440000030A000C42000380319292A2720A00A60
:10045000222AC0302D20C0302D200030A000DC200A
:1004600000380319362A2720A00A2F2AC0302D2051
:1004700090308B0008003921FC20BA21AF30B90040
:100480006421B90B402A00302D200030A000EC2060
:10049000003803194E2A2720A00A472AC0302D20F1
:1004A000852100308B00851A532A1D226F2076206B
:1004B000271E5B2A9A213008043C031D782A182144
:1004C000361C642A0A22432AF621B80B6A2ADD2147
:1004D000EF21432AB001C0302D200030A000DC20E5
:1004E00000380319762A2720A00A6F2AC0302D2051
:0804F0007D30A1006421562AB1
:02400E00723FFF
:00000001FF
