:020000040000FA
:02000000432A91
:040002000034003492
:0200080081294C
:06000A0083168801890144
:10001000831209100911080089148316FF30880023
:100020008312091500000000000000000000881B7A
:1000300017280911831688018312891008000915F1
:100040000000000000000000000009110800091075
:1000500088000C2009141F200800091088000C20BB
:100060001F20080038302D20422038302D2042201B
:1000700038302D204220080001302D2008000C309F
:100080002D20080064005030A500A401A40B4628D0
:10009000A50B4628080020088207BE347734B73401
:1000A000D7347B34BB34DB347D34BD34DD347E3433
:1000B000DE34EE34ED34EB34E734200882076C3460
:1000C00075347C3484348B34913497349D34A33428
:1000D000A834AD34B234B634BB34BF34C334831621
:1000E00001308600F030880083120800FE30A7003F
:1000F0008800000000000000000000000000000078
:100100000000000000000808A600F039F03C031DC4
:100110008F280314A70D271E8F282708782808008A
:100120000808A6001330A1006C2108082602080068
:10013000A0014B20260203199F28A00A9928080035
:100140005D208100A800A0308B00FF30A1006C2151
:100150006C2100308B0008000808F039F03C031DCA
:10016000AC2808002008820730343134323433346C
:100170003434353436343734383439344134423415
:1001800043344434453446342008820750344934DB
:100190004E343A3420340034200882074F344B3434
:1001A000203420342034003420088207453452346F
:1001B00052344F3452340034200882072E342E3407
:1001C0002E342E340034200882074E34203450342C
:1001D00049344E343A3400342008820757345434BA
:1001E00020345334323400342008820742344C34F3
:1001F0004F3443344B3400340313831607178717E7
:1002000081309900A430980083121816903098001D
:100210008C12080083120C1E0B299900080083120F
:10022000981815211A08C20008001812181608009C
:10023000B701B2014530320784000008B4005530E0
:10024000320784000008B50034083502031D2A294E
:100250002929B70AB20A32083302031D1A293029A4
:1002600037083302031D37293529361408003610A4
:1002700008008316031306309F00FF3085008312A9
:10028000052032203C203F2080302D2006302D20BC
:10029000831605308100013086008601803087009A
:1002A00083123130C5003230C6003730C7003230DB
:1002B000C8006C30A8000430B30000302D2000309E
:1002C000A000E3200038031968292720A00A61292B
:1002D000C0302D208D2108002108A300FF30A2008E
:1002E000A20B7029A30B6E2908006C216C216C21D4
:1002F0006C216C216C216C216C216C216C216C2196
:100300000800C0008B1C8729BB218B108B290B1D7B
:100310008129B1210B11400809008601B601B00105
:100320000330B800C0302D200030A000DC200038A1
:1003300003199D292720A00A9629C0302D200030BE
:100340008B0008009020031DB0299820AC20B2201B
:10035000B10055303007840031088000B00A2720F2
:1003600008000718B5290714B629071028088100C6
:10037000A0308B000800861445300A21B617A03043
:100380008B000800B001C0302D200030A000DC2020
:1003900000380319CE292720A00AC729C0302D20F4
:1003A0008C1ED0290F2127204530300784004208B9
:1003B0008000B00A3008043C031DD029051AE12949
:1003C000E429851ADE29C22908000616B614003071
:1003D0002D200030A000F42000380319F229272036
:1003E000A00AEB29C0302D2042300A2108008C1EC3
:1003F000F7290F21483A031DF729080080302D20E6
:100400000030A000D42000380319092A2720A00AB0
:10041000022AC0302D20FF30B9006C21B90B0D2A03
:100420000617080080302D200030A000CC200038B6
:1004300003191D2A2720A00A162AC0302D20FF30BC
:10044000B9006C21B90B212A0800861700302D2035
:100450000030A000C42000380319312A2720A00A48
:100460002A2AC0302D20C0302D200030A000DC20F2
:10047000003803193E2A2720A00A372AC0302D2031
:1004800090308B0008003921FC20C221AF30B90028
:100490006C21B90B482A00302D200030A000EC2040
:1004A00000380319562A2720A00A4F2AC0302D20D1
:1004B0008D2100308B00851A5B2A25226F20762043
:1004C000271E632AA2213008043C031D802A18211C
:1004D000361C6C2A12224B2AFE21B80B722AE52107
:1004E000F7214B2AB001C0302D200030A000DC20C5
:1004F000003803197E2A2720A00A772AC0302D2031
:080500007D30A1006C215E2A90
:02400E00723FFF
:00000001FF
